:100000000C94A6000C94C7000C94C7000C94C70075
:100010000C94C7000C94C7000C94C7000C94C70044
:100020000C94C7000C94C7000C94C7000C94C70034
:100030000C94C7000C9436170C94C7000C94C7009E
:100040000C94C7000C94C7000C94C7000C94C70014
:100050000C94C7000C94C7000C94C7000C94C70004
:100060000C94C7000C94C7000C94C7000C94C700F4
:100070000C94C7000C94C7000C94C7000C94C700E4
:100080000C94C7000C94C7000C94C7000C94C700D4
:100090000C9495180C9465180C94C7000C94C70028
:1000A0000C94C7000C94C7000C94421A0C94C7001F
:1000B0000C94C7000C94C7000C94C7000C94C700A4
:1000C0000C94C7000C94C7000C94C7000C94C70094
:1000D0000C94C7000C94C7000C94C7000C94C70084
:1000E0000C94C7000C94C7000C94C7000C94C70074
:1000F0000C94C7000C94C7000C94C7000C94C70064
:100100000C94C7000C94C7000C94C7000C94C70053
:100110000C94C7000C94C7000C94C7000C94C70043
:100120000C94C7000C94C7000C94C7000C94C70033
:100130000C94C7000C9454100C9472140C94A407E3
:100140000C94160F0C94D9140C946F1A11241FBE22
:10015000CFEFD1E8DEBFCDBF00E00CBF12E0A0E0E2
:10016000B2E0E8E4F8E300E00BBF02C007900D92B4
:10017000AE30B107D9F72CE0AEE0B2E001C01D927D
:10018000A23BB207E1F70E94E01A0C94221C0C94E7
:100190000000CF93DF93CDB7DEB70E94A2190E9473
:1001A000E5000E9441030E947905DF91CF910895F7
:1001B000CF93DF93CDB7DEB70E94C8040E947006CC
:1001C0000E94A701DF91CF910895CF93DF93CDB720
:1001D000DEB710920F0210920E02DF91CF910895B8
:1001E000CF93DF931F921F92CDB7DEB79A83898397
:1001F00089819A810E947C01982F81E08927882338
:1002000021F089819A810E946D020F900F90DF91F9
:10021000CF910895CF93DF9300D000D0CDB7DEB754
:100220009E838D831A82198280910E0290910F0213
:100230009C838B8353C02B813C818D819E812817A9
:10024000390709F040C089819A81009759F08B8164
:100250009C81FC012081318189819A81FC0131835B
:10026000208309C08B819C81FC01808191819093C6
:100270000F0280930E028B819C81FC018081918111
:10028000009701F18B819C81FC01608171818B81E0
:100290009C81FC0180819181FC0122813381448118
:1002A00055818D819E81FC0182819381A481B581DC
:1002B000820F931FA41FB51FFB0182839383A48326
:1002C000B58311C010C08B819C819A8389838B81F7
:1002D0009C81FC01808191819C838B838B819C819B
:1002E000009709F0A8CF26960FB6F894DEBF0FBE90
:1002F000CDBFDF91CF910895CF93DF9300D01F92B0
:10030000CDB7DEB79C838B8380910E0290910F0254
:100310009A83898310C029813A818B819C81281717
:10032000390711F481E00CC089819A81FC01808138
:1003300091819A83898389819A81009761F780E00E
:100340000F900F900F900F90DF91CF910895EF9243
:10035000FF920F931F93CF93DF93CDB7DEB728970C
:100360000FB6F894DEBF0FBECDBF8091B10C8823CD
:1003700009F4A6C08FE590E0FC0180818D83F8949C
:100380008091B10C8E831092B10C8FE590E02D819D
:10039000FC0120838E81882F90E0A0E0B0E0880FE0
:1003A000991FAA1FBB1F9C01AD01220F331F441FC1
:1003B000551F220F331F441F551F820F931FA41F69
:1003C000B51F89839A83AB83BC833DC080910E02A5
:1003D00090910F0298878F8380910E0290910F0267
:1003E000FC0182819381A481B58129813A814B816D
:1003F0005C8179018A01E81AF90A0A0B1B0BD80102
:10040000C70189839A83AB83BC8380910E0290914C
:100410000F02FC018081918190930F0280930E0264
:100420008F819885FC018285813021F48F819885A8
:100430000E946D028F819885FC01238534858F8110
:100440009885F901199580910E0290910F020097FD
:1004500099F080910E0290910F02FC01228133816C
:100460004481558189819A81AB81BC818217930730
:10047000A407B50708F0AACF80910E0290910F0251
:100480000097F1F060910E0270910F0280910E02C0
:1004900090910F02FC012281338144815581898131
:1004A0009A81AB81BC8179018A01E81AF90A0A0BA9
:1004B0001B0BD801C701FB0182839383A483B583FF
:1004C00028960FB6F894DEBF0FBECDBFDF91CF9157
:1004D0001F910F91FF90EF900895EF92FF920F936D
:1004E0001F93CF93DF93CDB7DEB72A970FB6F8945B
:1004F000DEBF0FBECDBF9A87898780910E02909193
:100500000F02009709F497C01A82198289859A858B
:10051000FC0186819781A085B1858B839C83AD8307
:10052000BE8380910E0290910F0298878F834DC0F9
:100530008F819885FC0122813381448155818B8193
:100540009C81AD81BE8182179307A407B507D8F4BB
:100550008F819885FC0122813381448155818B8173
:100560009C81AD81BE8179018A01E81AF90A0A0BE2
:100570001B0BD801C7012F813885F9018283938332
:10058000A483B58327C08F819885FC0182819381E4
:10059000A481B5812B813C814D815E8179018A01E5
:1005A000E81AF90A0A0B1B0BD801C7018B839C833D
:1005B000AD83BE838F8198859A8389838F81988547
:1005C000FC018081918198878F838F819885009726
:1005D00009F0AECF29853A858B819C81AD81BE81A2
:1005E000F90182839383A483B58389819A810097DB
:1005F00091F089819A81FC012081318189859A85D8
:10060000FC013183208389819A8129853A85FC0107
:100610003183208329C020910E0230910F028985F9
:100620009A85FC013183208389859A8590930F02F6
:1006300080930E0219C089859A85FC01118210826F
:1006400089859A85FC0186819781A085B185298558
:100650003A85F90182839383A483B58389859A853A
:1006600090930F0280930E022A960FB6F894DEBF85
:100670000FBECDBFDF91CF911F910F91FF90EF90F3
:100680000895CF93DF93CDB7DEB789E391E0FC0106
:1006900020812160FC01208310929102109293022C
:1006A00081E08093100288E00E94A20486E591E038
:1006B0002BEEFC0120838CE491E0FC01208120687A
:1006C000FC012083DF91CF910895CF93DF931F9298
:1006D000CDB7DEB789838981809391020E948C0413
:1006E0000F90DF91CF910895CF93DF931F92CDB7F5
:1006F000DEB789838981809392020E9462040F9001
:10070000DF91CF910895CF93DF931F92CDB7DEB7DE
:1007100089838981809393020E9462040F90DF9104
:10072000CF910895CF93DF9300D01F92CDB7DEB75E
:100730009C838B83CE0103969A83898382E691E022
:1007400029813A81F9012081FC01208383E691E02F
:1007500029813A81F9012181FC0120830F900F90BA
:100760000F900F90DF91CF910895CF93DF9300D03A
:100770001F92CDB7DEB79C838B83CE0103969A83FD
:10078000898380E691E029813A81F9012081FC0189
:10079000208381E691E029813A81F9012181FC01E0
:1007A00020838DE691E029813A81F90140812981F8
:1007B0003A812F5F3F4FF9012081240FFC012083F4
:1007C0000F900F900F900F90DF91CF910895CF93DE
:1007D000DF931F92CDB7DEB7898385E491E029814D
:1007E0002F702F70FC013081307F232BFC01208380
:1007F0000F90DF91CF910895CF93DF93CDB7DEB700
:1008000088E00E94A20489E391E0FC01208122603B
:10081000FC01208382E080931002DF91CF91089544
:10082000CF93DF93CDB7DEB789E391E0FC01208160
:100830002D7FFC0120830E948C0481E080931002B4
:10084000DF91CF910895CF93DF9300D01F92CDB762
:10085000DEB79B838A836C8389E10E94A2048FE4C4
:1008600091E02FEFFC01208380E891E02C812E5F46
:10087000FC012083198213C08981882F90E08F5753
:100880009E4F2981222F30E04A815B81240F351F42
:10089000F9012081FC01208389818F5F89839981FF
:1008A0008C81981748F383E08093100282E491E0F2
:1008B00022E0FC0120830F900F900F900F90DF91AA
:1008C000CF910895CF93DF93CDB7DEB784E591E064
:1008D000209193022F702F70FC013081307F232BE9
:1008E000FC01208380919302882339F083E591E015
:1008F00020919202FC0120830CC088E491E02091B9
:1009000092022F712F71FC013081307E232BFC016C
:100910002083DF91CF910895CF93DF93CDB7DEB7DA
:1009200088E00E94A2048FE491E02FEFFC01208375
:1009300080919102882319F086E10E94A204DF9140
:10094000CF910895CF93DF931F92CDB7DEB7898300
:1009500082E491E023E0FC012083000081E491E047
:10096000FC0180818F718830C9F782E491E0298190
:10097000FC012083000081E491E0FC0180818F7103
:10098000982F89819817B9F70F90DF91CF9108952B
:10099000CF93DF93CDB7DEB728970FB6F894DEBFBD
:1009A0000FBECDBF80911002823009F499C08FE450
:1009B00091E0FC0180818870882309F459C08BE79D
:1009C00091E0FC0180818B83198211C08981882F7D
:1009D00090E02981222F30E020583E4FF9012081FC
:1009E0008F5E9D4FFC01208389818F5F8983898180
:1009F000282F30E08B81882F90E001962817390747
:100A00002CF381E192E09D838C838B8182508E83D5
:100A10008B81882F90E08F5E9D4FFC0180818F83BA
:100A200087E491E0FC0180818A558887CE01049695
:100A30000E94330E000081E491E0FC0180818F71FF
:100A40008631C9F78FE491E0FC0120812860FC0128
:100A500020838CE491E0FC0120812F77FC0120832E
:100A60008CE491E0FC0120812068FC01208338C0E7
:100A70008FE491E0FC0180818074882389F181E416
:100A800091E0FC0180818F71893119F582E491E058
:100A9000FC0180818295869587708A838A8188236C
:100AA00011F41A820EC08A81833019F481E08A839E
:100AB00008C08A81853019F482E08A8302C083E00D
:100AC0008A830E948C0481E0809310028A810E94B4
:100AD00042158FE491E0FC0120812064FC01208319
:100AE00028960FB6F894DEBF0FBECDBFDF91CF9131
:100AF0000895CF93DF931F92CDB7DEB710928D0C80
:100B000010928E0C10928A0C1092890C1092B00CDC
:100B10001092AF0C19820EC08981882F90E0039645
:100B2000880F991F8757934FFC011182108289818A
:100B30008F5F89838981803178F30E94BF120E9480
:100B4000FB0D0E947F080E947D060E9485090F9080
:100B5000DF91CF910895CF93DF931F921F92CDB76E
:100B6000DEB79A83898389819A8190938A0C8093D6
:100B7000890C89819A810E94B5030F900F90DF91B3
:100B8000CF910895CF93DF931F921F92CDB7DEB719
:100B90009A83898389819A8190938C0C80938B0CA2
:100BA00089819A810E9492030F900F90DF91CF91DB
:100BB0000895CF93DF9300D0CDB7DEB789837B83D1
:100BC0006A838981882F90E00396880F991F875741
:100BD000934F2A813B81FC01318320830F900F903A
:100BE0000F90DF91CF910895CF93DF93CDB7DEB70C
:100BF0008091AF0C9091B00C21E0009709F420E0B7
:100C0000822FDF91CF910895CF93DF93CDB7DEB7D9
:100C10008091AF0C9091B00C01969093B00C8093A2
:100C2000AF0CDF91CF910895CF93DF93CDB7DEB7AF
:100C30008091AF0C9091B00C01979093B00C809381
:100C4000AF0CDF91CF910895CF93DF93CDB7DEB78F
:100C50000E94FC03DF91CF910895CF93DF93CDB72E
:100C6000DEB70E941004DF91CF910895CF93DF93F8
:100C7000CDB7DEB72C970FB6F894DEBF0FBECDBF51
:100C80008C8789E0E4E0F2E0DE01139601900D929A
:100C90008A95E1F789E189831A8215C09C8589814B
:100CA000981758F48A81882F90E09E012D5F3F4F5E
:100CB000820F931FFC0180810AC08981875E89832E
:100CC0008A818F5F8A838A81893040F38FEF2C96E7
:100CD0000FB6F894DEBF0FBECDBFDF91CF91089560
:100CE000CF93DF93CDB7DEB70E947C120E947115BF
:100CF0000E944808DF91CF910895CF93DF93CDB73D
:100D0000DEB71092950210929402DF91CF91089570
:100D1000CF93DF931F921F92CDB7DEB79A8389835B
:100D200089819A81FC01148289819A81FC0117864C
:100D300089819A81FC01138212828091AF0C90917B
:100D4000B00C01969093B00C8093AF0C80919402FC
:100D500090919502009761F489819A81FC0111823A
:100D6000108289819A8190939502809394020FC09A
:100D7000209194023091950289819A81FC013183FE
:100D8000208389819A8190939502809394020F9099
:100D90000F90DF91CF910895CF93DF9300D01F92F2
:100DA000CDB7DEB79C838B830E949D089A8389838D
:100DB00089819A81009759F48B819C8122E0FC0102
:100DC00024838B819C8122E0FC012787B6C08B8124
:100DD0009C8129813A81FC01338322838B819C8110
:100DE00021E0FC01248389819A8189579F4F24EA5D
:100DF00037E0FC01318320838B819C81FC0181855C
:100E0000882F90E08470992721E0009709F420E072
:100E100089819A818A579F4FFC0120838B819C8115
:100E2000FC018185882F90E08170992721E000974F
:100E300009F420E089819A812170FC0133853E7F8D
:100E4000232BFC0123878B819C81FC018185882FCA
:100E500090E08870992721E0009709F420E08981CB
:100E60009A812170220F220FFC0133853B7F232BB7
:100E7000FC01238780918D0C8F5F80938D0C2091D6
:100E80008D0C89819A81FC0124872091890C3091F5
:100E90008A0C89819A81FC01368725878B819C8108
:100EA000FC012581368189819A81FC01308B27875D
:100EB0008B819C81FC018085282F2F7089819A81EC
:100EC0002F70FC013189307F232BFC01218B8B811A
:100ED0009C81FC018781282F2F7089819A8122951E
:100EE000207FFC0131893F70232BFC01218B8B81FA
:100EF0009C81FC018485482F50E08B819C81FC0102
:100F00002285338589819A818F579F4FFC0180818B
:100F10009181B9010E94D11B89819A81FC012181B3
:100F20008B819C81FC018485280F89819A81FC0139
:100F3000218389819A810E94F2120F900F900F9065
:100F40000F90DF91CF910895CF93DF9300D01F9240
:100F5000CDB7DEB79C838B838091940290919502EC
:100F60009A8389832BC089819A81FC0122813381F4
:100F70008B819C8128173907D1F48B819C818D57F7
:100F80009F4FFC01208189819A81FC0127878B81F9
:100F90009C818A579F4FFC01208189819A81FC01A5
:100FA000208B89819A8122E0FC0124830BC08981F6
:100FB0009A81FC01808191819A83898389819A81B8
:100FC000009789F68B819C810E9410090F900F90E9
:100FD0000F900F90DF91CF910895CF93DF9300D0C2
:100FE0001F92CDB7DEB79C838B8320919402309102
:100FF00095028B819C812817390761F480919402B6
:1010000090919502FC01808191819093950280934B
:10101000940225C080919402909195029A838983CD
:1010200007C089819A81FC01808191819A8389839B
:1010300089819A81FC01208131818B819C812817D3
:10104000390779F789819A81FC0180819181FC01BE
:101050002081318189819A81FC01318320838091B3
:10106000AF0C9091B00C01979093B00C8093AF0CA3
:101070008B819C81FC01258536858B819C81F901C2
:1010800019950F900F900F900F90DF91CF910895C9
:10109000CF93DF931F921F92CDB7DEB7809194025A
:1010A000909195029A83898321C089819A81FC015C
:1010B0008481882F90E08130910581F08230910504
:1010C00041F0009709F00BC089819A810E94CC06FB
:1010D00011C089819A810E94ED070CC000008981AE
:1010E0009A81FC01808191819A83898389819A8187
:1010F0000097D9F60F900F90DF91CF910895CF937D
:10110000DF931F92CDB7DEB7198210C08981282FD7
:1011100030E049E8429FC001439F900D11248A5658
:101120009D4FFC01108289818F5F898389818A307C
:1011300068F30F90DF91CF910895CF93DF931F92C3
:10114000CDB7DEB7198262C08981282F30E049E827
:10115000429FC001439F900D11248A569D4FFC0170
:101160008081882309F04FC08981282F30E049E829
:10117000429FC001439F900D11248A569D4F49E81C
:1011800050E060E070E00E94DA1B8981282F30E097
:1011900049E8429FC001439F900D112489569D4FFD
:1011A00020E1FC0120838981482F50E08981282F8C
:1011B00030E069E8629FC001639F900D1124429660
:1011C0009C012A563D4F69E8649FC001659F900DC0
:1011D0001124895E9C4FFC01318320838091AF0CE8
:1011E0009091B00C01969093B00C8093AF0C8981D4
:1011F000282F30E049E8429FC001439F900D112401
:101200008A569D4F09C089818F5F898389818A3081
:1012100008F49ACF80E090E00F90DF91CF9108958D
:10122000CF93DF931F921F92CDB7DEB79A83898346
:1012300089819A81FC0110828091AF0C9091B00C51
:1012400001979093B00C8093AF0C0F900F90DF91AB
:10125000CF910895CF93DF931F921F92CDB7DEB742
:101260009A83898389819A81009729F486E992E09B
:101270009A83898316C089819A8187579F4F9A8361
:1012800089830FC089819A81FC018081882319F0AC
:1012900089819A810EC089819A8187579F4F9A834D
:1012A000898389819A81F7E0803F9F0758F380E026
:1012B00090E00F900F90DF91CF910895CF93DF933F
:1012C0001F921F92CDB7DEB79A83898389819A8155
:1012D0008D579F4FFC01108280918D0C8F5F809302
:1012E0008D0C20918D0C89819A81FC01248720919D
:1012F000890C30918A0C89819A81FC013687258777
:101300000F900F90DF91CF910895CF93DF931F92AD
:10131000CDB7DEB7198239C08981282F30E0C901E5
:10132000880F991F880F991F880F991F821B930B95
:101330008F50984F2FEF3FEFFC013183208389813D
:10134000282F30E0C901880F991F880F991F880F37
:10135000991F821B930B8051984FFC0120812E7F97
:10136000FC0120838981282F30E0C901880F991F53
:10137000880F991F880F991F821B930B8B50984FD2
:10138000FC01108289818F5F89838981843620F2F4
:101390000F90DF91CF910895CF93DF9300D01F92EC
:1013A000CDB7DEB79B838A836C83198242C0898163
:1013B000282F30E0C901880F991F880F991F880FC7
:1013C000991F821B930B8F50984FFC012081318114
:1013D0008A819B812817390749F58981282F30E0B8
:1013E000C901880F991F880F991F880F991F821BA9
:1013F000930B8051984FFC01808186958170282F36
:1014000030E08C81882F90E02817390779F48981A2
:10141000282F30E0C901880F991F880F991F880F66
:10142000991F821B930B8051984F09C089818F5F50
:1014300089838981843608F4BACF80E090E00F90E8
:101440000F900F900F90DF91CF910895CF93DF937E
:1014500000D01F921F92CDB7DEB780EF97E09A833E
:1014600089831C821B821D822DC089819A81FC0187
:1014700080818170882309F01DC089819A81FC01D7
:101480008581882329F489819A819C838B831DC05F
:101490008B819C81009751F089819A81FC01258183
:1014A0008B819C81FC018581281720F489819A8198
:1014B0009C838B838D818F5F8D8389819A81079631
:1014C0009A8389838D81843680F28B819C81FC0193
:1014D00020812D7FFC0120838B819C81FC01208158
:1014E0002F702063FC0120838B819C8120E8FC010C
:1014F00025838B819C810F900F900F900F900F9000
:10150000DF91CF910895CF93DF931F921F92CDB7B4
:10151000DEB79A83898389819A81FC0180818170F9
:10152000882309F00BC089819A812FEF3FEFFC01DE
:101530003283218389819A81FC0115820F900F905B
:10154000DF91CF910895CF93DF9300D01F921F9228
:10155000CDB7DEB79C838B836D838B819C816D813E
:101560000E94CC099A83898389819A81009731F0FE
:1015700089819A81FC018381948102C08FEF9FEF62
:101580000F900F900F900F900F90DF91CF910895D3
:10159000CF93DF93CDB7DEB780EF97E0DF91CF91A8
:1015A0000895CF93DF93CDB7DEB728970FB6F894A1
:1015B000DEBF0FBECDBF9C838B836D835F834E8365
:1015C00028878B819C816D810E94CC099A838983B5
:1015D00089819A81009721F40E94260A9A8389833F
:1015E00089819A812B813C81FC013283218389810D
:1015F0009A812E813F81FC01348323838D81282FA2
:10160000217089819A812170220FFC0130813D7FF8
:10161000232BFC01208389819A81FC0120812F707A
:101620002063FC01208389819A8120E8FC012583C5
:1016300089819A812885FC01268328960FB6F89423
:10164000DEBF0FBECDBFDF91CF910895CF93DF9363
:1016500000D01F921F92CDB7DEB79C838B836D8322
:101660008B819C816D810E94CC099A8389838981B9
:101670009A81009721F089819A810E94830A0F90B4
:101680000F900F900F900F90DF91CF910895CF930F
:10169000DF93CDB7DEB727970FB6F894DEBF0FBE46
:1016A000CDBF9F838E838E819F8102969C838B8387
:1016B0008B819C81FC0187819085992374F48B81B7
:1016C0009C81FC01278130858B819C81FC01838575
:1016D00094852817390709F089C08B819C81FC010A
:1016E000838194818F3FFFEF9F0709F47FC08B8137
:1016F0009C81FC018385948560E00E94CC099A83DB
:10170000898389819A81009709F44EC08B819C81DD
:10171000FC01858196818F3FFFEF9F0779F420912F
:10172000890C30918A0C8B819C81FC018585968582
:101730002817390719F481E090E002C080E090E0BA
:101740008D838D8181708D8389819A81FC012381B4
:1017500034818B819C81FC01878190852817390712
:1017600061F08E819F818D579F4FFC01208189817F
:101770009A81FC018681821718F08D81882399F067
:101780008B819C81FC012781308589819A81FC01B4
:101790003483238389819A81FC0120812F70206307
:1017A000FC01208319C018C00E94260A9A838983ED
:1017B0008B819C81FC012385348589819A81FC0180
:1017C000328321838B819C81FC0127813085898133
:1017D0009A81FC01348323838E819F818D579F4F93
:1017E000FC01208189819A81FC01268327960FB60E
:1017F000F894DEBF0FBECDBFDF91CF910895CF9398
:10180000DF9300D01F92CDB7DEB79C838B838B8193
:101810009C81FC01878590898F3FFFEF9F0709F42A
:1018200060C08B819C81FC01838583FB882780F9C4
:10183000282F8B819C81FC0187859089622F0E94D3
:10184000CC099A83898389819A81009739F08981AB
:101850009A81FC0180818170882309F042C08B81CC
:101860009C818D579F4FFC0180818823D9F4898109
:101870009A81FC0120812F702063FC0120838981E3
:101880009A81FC01858121E0280F89819A81FC01E0
:10189000258389819A81FC0185818F3F11F50E9402
:1018A000A60D1FC089819A81FC01808182958F706D
:1018B0002FE0280F2F7089819A812295207FFC01CB
:1018C00030813F70232BFC01208389819A81FC01A8
:1018D000808182958F70882321F489819A810E946A
:1018E000830A0F900F900F900F90DF91CF91089582
:1018F000CF93DF9300D01F92CDB7DEB79C838B834D
:101900008B819C8102969A83898389819A81FC01CB
:10191000858596858F3FFFEF9F0741F489819A81E6
:101920002FEF3FEFFC013683258328C089819A8100
:10193000FC0181858470882359F089819A81FC019A
:101940002585368589819A81FC013683258316C0D9
:1019500089819A81FC01818583FB882780F9282F62
:1019600089819A81FC0185859685622F0E94A30A50
:101970009C0189819A81FC01368325830F900F9009
:101980000F900F90DF91CF910895CF93DF9300D008
:101990001F92CDB7DEB79C838B838B819C8102968F
:1019A0009A83898389819A81FC01818583FB8827B9
:1019B00080F9282F89819A81FC0185859685622F7F
:1019C0000E94A30A8F3FFFEF9F0799F08B819C81B4
:1019D00089579F4FFC01118210828B819C818A570D
:1019E0009F4F22E0FC0120838B819C810E94F21298
:1019F00019C089819A81FC01818583FB882780F940
:101A0000482F89819A81FC012585368589819A81B3
:101A1000FC0183859485B9010E94190D8B819C81FD
:101A20000E9410090F900F900F900F90DF91CF91AF
:101A30000895CF93DF93CDB7DEB729970FB6F8940B
:101A4000DEBF0FBECDBF9E838D8378876F834987AE
:101A50000E949D089A83898389819A81009709F45D
:101A600041C089819A810E945E0989819A81FC0125
:101A7000818126E0280F89819A81FC012183898157
:101A80009A8189579F4FFC011182108289819A8126
:101A90002D813E81FC01308B278789819A818F5768
:101AA0009F4FFC01808191819C838B838B819C81E2
:101AB00021E0FC0120838B819C812D813E81FC01F2
:101AC000328321838B819C812F813885FC01348373
:101AD00023838B819C812985FC01258389819A81BF
:101AE0000E94F21229960FB6F894DEBF0FBECDBF4A
:101AF000DF91CF910895CF93DF9300D01F92CDB7A0
:101B0000DEB79C838B838B819C81FC0187819085D0
:101B10009A8389838B819C81FC018185863011F0B9
:101B200080E00DC089819A81FC01258189819A819B
:101B3000FC0183819481622F0E94260B81E00F902B
:101B40000F900F900F90DF91CF910895CF93DF9377
:101B50001F92CDB7DEB7198226C08981282F30E0C9
:101B60008981482F50E0CA01880F991F880F991F5B
:101B7000880F991F841B950B8B50984FFC01808117
:101B8000869541E0480FC901880F991F880F991F5A
:101B9000880F991F821B930B8B50984FFC01408339
:101BA00089818F5F898389818436B8F20F90DF91B4
:101BB000CF910895CF93DF931F921F92CDB7DEB7D9
:101BC0009A83898389819A81FC01418189819A81E3
:101BD00002969C0189819A818F579F4FFC018081D9
:101BE0009181B901681B790BCB01840F0F900F9085
:101BF000DF91CF910895CF93DF931F92CDB7DEB7DA
:101C0000198211C08981282F30E0C901880F991FDE
:101C1000880F991F820F931F8055954FFC011082EA
:101C200089818F5F89838981823360F384E690E0C4
:101C3000A0E0B0E08093AD0B9093AE0BA093AF0B00
:101C4000B093B00B1092B10B86E19FE09093B30B71
:101C50008093B20B64E570E180E00E94D9050F909B
:101C6000DF91CF910895CF93DF9300D01F92CDB72E
:101C7000DEB79C838B838B819C81FC018081918169
:101C80000196FC0180818838C1F48B819C81FC0124
:101C900080819181FC018081813649F08B819C811A
:101CA000FC0180819181FC018081813431F48B8140
:101CB0009C81FC018281803108F43BC00E949D0818
:101CC0009A83898389819A81009709F432C0898136
:101CD0009A8120E2FC0120838B819C81FC0122817E
:101CE00089819A81FC0121838B819C81FC01238164
:101CF00089819A818D579F4FFC0120838B819C8124
:101D0000FC01248189819A818C579F4FFC0120839B
:101D10008B819C81FC018281482F50E08B819C81CA
:101D2000FC012081318189819A810296B9010E944A
:101D3000D11B0F900F900F900F90DF91CF910895CE
:101D4000CF93DF9300D000D0CDB7DEB79E838D83D5
:101D50000E949D089A83898389819A81009709F45A
:101D60004FC089819A810E945E0989819A81FC0114
:101D7000818123E0280F89819A81FC012183898157
:101D80009A8189579F4FFC01118210828D819E811B
:101D9000FC01838581FB222720F989819A812170AA
:101DA000220FFC0133853D7F232BFC0123878D818E
:101DB0009E81FC012585368589819A81FC01308BC5
:101DC000278789819A818F579F4FFC01808191815C
:101DD0009C838B838B819C81FC0110822091A60BBC
:101DE0008B819C81FC0122838D819E81FC01248555
:101DF0008B819C81FC01218389819A810E94F2124E
:101E000026960FB6F894DEBF0FBECDBFDF91CF91FF
:101E10000895CF93DF931F92CDB7DEB78983898171
:101E20008093A60B0F90DF91CF910895CF93DF930E
:101E300000D01F92CDB7DEB79C838B8319821A82A4
:101E400030C08A81282F30E0C901880F991F880F80
:101E5000991F820F931F8055954FFC018081882325
:101E6000E9F08A81282F30E0C901880F991F880F77
:101E7000991F820F931F8055954FFC0180814FEF72
:101E8000480FC901880F991F880F991F820F931F50
:101E90008055954FFC01408381E089838A818F5F63
:101EA0008A838A81823368F28981882321F08B8139
:101EB0009C810E94F0000F900F900F900F90DF9187
:101EC000CF910895CF93DF93CDB7DEB729970FB6A3
:101ED000F894DEBF0FBECDBF998788871A8219821A
:101EE0001B82AEC08B81282F30E0C901880F991F5B
:101EF000880F991F820F931F8455954F9D838C8364
:101F00008C819D81FC018481882309F48CC08885A3
:101F10009985FC01238534858C819D81FC0180811C
:101F200091812817390709F07EC08C819D81FC01C1
:101F3000228188859985FC018285F22FF81B8F2FDD
:101F40008E838E81883008F048C08C819D81FC0191
:101F50008381882F90E02E81222F30E0022E02C054
:101F6000959587950A94E2F7817099270097F1F08B
:101F70002091890C30918A0C88859985FC01858196
:101F800096812817390781F488859985FC01818518
:101F900083FB882780F9282F88859985FC01858512
:101FA0009685622F0E94260B81E075C08C819D81F1
:101FB000FC018381482F8E81282F30E081E090E062
:101FC00002C0880F991F2A95E2F7842B282F8C8155
:101FD0009D81FC01238380E05EC08E8181958F838B
:101FE00088859985FC0122858C819D81FC01228355
:101FF0008C819D81FC018381882F90E02F81222F8D
:1020000030E002C0880F991F2A95E2F78160282FDF
:102010008C819D81FC0123838C819D8125E1FC01C4
:10202000248380E038C08C819D81FC0184818823D9
:1020300021F48C819D819A8389838B818F5F8B832F
:102040008B81823308F44ECF89819A81009711F4F5
:1020500081E021C088859985FC01238534858981AB
:102060009A81FC013183208388859985FC01228532
:1020700089819A81FC01228389819A8121E0FC0176
:10208000238389819A8125E1FC01248387EA9BE0EF
:102090000E94F00080E029960FB6F894DEBF0FBED4
:1020A000CDBFDF91CF910895CF93DF931F921F9201
:1020B000CDB7DEB79A83898389819A81FC018185B6
:1020C000882311F480E01AC089819A81FC018781FC
:1020D0009085FC018081882F90E0009721F081306D
:1020E000910531F00AC089819A810E94231406C0AB
:1020F00089819A810E947B0D01C080E00F900F9032
:10210000DF91CF910895CF93DF9300D01F92CDB789
:10211000DEB79C838B838B819C8102969A83898313
:102120008B819C8124E2FC01208389819A81FC01BE
:1021300081858270882309F0A2C089819A81FC017F
:1021400081858870882309F09AC089819A81FC0171
:10215000838194818F3FFFEF9F07E1F42091890CE9
:1021600030918A0C89819A81FC0185859685281792
:10217000390749F089819A81FC01858596858F3FD1
:10218000FFEF9F0731F48B819C8122E2FC012083C9
:1021900076C075C089819A81FC01858596858F3FBF
:1021A000FFEF9F0741F489819A81FC01818581704D
:1021B000882309F064C02091890C30918A0C8981B0
:1021C0009A81FC01838594852817390709F457C043
:1021D0008B819C810E94470B89819A810E94620FAA
:1021E000882309F04CC089819A81FC018581968100
:1021F0008F3FFFEF9F07B9F42091890C30918A0C33
:1022000089819A81FC01858596852817390759F0BF
:1022100089819A81FC0181858470882321F48B81D6
:102220009C810E94A7132091890C30918A0C89818E
:102230009A81FC01858596852817390749F089819F
:102240009A81FC01858596858F3FFFEF9F0731F4CA
:102250008B819C8122E2FC01208311C02091890C9A
:1022600030918A0C89819A81FC0185819681281799
:10227000390729F48B819C8123E2FC0120830F9094
:102280000F900F900F90DF91CF910895CF93DF9330
:10229000CDB7DEB760970FB6F894DEBF0FBECDBFE7
:1022A000988B8F878F85988902969A8389838981F5
:1022B0009A81FC01878582958F70882F90E0039624
:1022C000880F991F8757934FFC0180819181009758
:1022D00011F480E0AFC089819A81FC0183859485E7
:1022E0009C838B8389819A81FC01858596859E8359
:1022F0008D8389819A81FC0187858F708F83898185
:102300009A81FC01878582958F7088878F8598894F
:102310008F579F4FFC01808191819B878A878F8592
:1023200098890E94DA0D8C878F8598898D579F4FE9
:10233000FC0180818D878F8598898C579F4FFC0188
:1023400080818E8789819A81FC018185982F917087
:1023500081E0992309F480E089878985282F898184
:102360009A81FC0181858270822B89878985282F3B
:1023700089819A81FC0181858470882311F080E233
:1023800001C080E0822B89878985282F89819A81E5
:10239000FC0181858870882311F080E401C080E011
:1023A000822B89878985282F89819A81FC018585DF
:1023B00096858F3FFFEF9F0711F484E001C080E016
:1023C000822B89878985482F89819A81FC01238501
:1023D000348589819A81FC01878190852817390786
:1023E00011F488E001C080E0842B89878985282F3B
:1023F00089819A81FC01838194818F3FFFEF9F0740
:1024000011F480E101C080E0822B898789819A8163
:10241000FC01878582958F70882F90E00396880F46
:10242000991F8757934FFC0120813181CE0103967C
:10243000F901199560960FB6F894DEBF0FBECDBFB7
:10244000DF91CF910895CF93DF9300D0CDB7DEB762
:102450009B838A831092A60B8A819B810E944611DE
:1024600089838A819B81FC0183858170882309F49B
:1024700019828A819B81FC01878190858F3FFFEFC4
:102480009F07A9F42091890C30918A0C8A819B8145
:10249000FC01878590892817390749F48A819B8137
:1024A000FC0183858870882311F481E089838A8107
:1024B0009B81FC01858196818F3FFFEF9F0709F487
:1024C00019828091890C90918A0C8F3F2FEF92078F
:1024D00009F419828981882321F08A819B810E94D5
:1024E000A00E8A819B8124E2FC0120830F900F9033
:1024F0000F90DF91CF910895CF93DF931F921F929A
:10250000CDB7DEB71A8219822BC089819A81FC016E
:102510008081882F90E08232910599F08332910575
:1025200024F48032910541F01BC08332910571F093
:102530008432910581F014C089819A810E948310B0
:102540000FC089819A810E9423120AC089819A81D1
:102550000E94C50C05C089819A810E941009000063
:1025600089819A810E942A099A83898389819A8123
:10257000009759F60F900F90DF91CF910895CF9368
:10258000DF93CDB7DEB71092B50B1092B40B82E398
:1025900090E0A0E0B0E08093BC0B9093BD0BA093C3
:1025A000BE0BB093BF0B1092C00B82E794E19093E7
:1025B000C20B8093C10B8AE090E0A0E0B0E0809372
:1025C000C90B9093CA0BA093CB0BB093CC0B10927A
:1025D000CD0B89ED94E19093CF0B8093CE0BDF91DF
:1025E000CF910895CF93DF9300D01F92CDB7DEB780
:1025F0009C838B838B819C8102969A8389838B81B8
:102600009C818A579F4FFC018081882F90E08270C7
:102610009927009731F08B819C8122E1FC01208376
:1026200005C08B819C8122E1FC0120838B819C81F0
:102630008D579F4FFC0110828B819C818A579F4F41
:10264000FC018081882F90E081709927009741F0EC
:1026500089819A812FEF3FEFFC013483238309C0E6
:1026600020918B0C30918C0C89819A81FC013483F0
:1026700023838B819C818A579F4FFC018081882F07
:1026800090E084709927009789F48B819C818A5708
:102690009F4FFC018081882F90E0817099270097DF
:1026A00029F48B819C810E94780C0AC089819A81CF
:1026B000FC012585368589819A81FC013683258335
:1026C0002091890C30918A0C89819A81FC01308794
:1026D000278380918E0C8F5F80938E0C20918E0CBF
:1026E00089819A81FC01228389819A81FC018581FB
:1026F00096818F3FFFEF9F07A9F489819A8121E49A
:1027000038E8FC01318320830E94C21B877099271F
:1027100001969C018B819C818C579F4FFC013183DA
:1027200020830EC089819A8121E638E8FC0131833B
:1027300020838B819C818C579F4FFC0111821082DA
:102740000F900F900F900F90DF91CF910895CF933E
:10275000DF9300D01F92CDB7DEB79C838B830E949E
:102760009D089A83898389819A81009709F464C0BE
:1027700089819A8122E1FC0120838B819C81FC016B
:10278000218189819A81FC01218389819A818D57D8
:102790009F4FFC0110820E94C21B877099270196EF
:1027A0009C0189819A818C579F4FFC013183208342
:1027B00089819A8189579F4FFC01118210828B81F8
:1027C0009C81FC018181482F50E08B819C819C0180
:1027D0002E5F3F4F89819A810296B9010E94D11BD9
:1027E00089819A8121E438E8FC013383228389813D
:1027F0009A812FEF3FEFFC01308727838B819C81EB
:10280000FC012581368189819A81FC0136832583EB
:102810002091890C30918A0C89819A81FC01328740
:10282000218780918E0C8F5F80938E0C20918E0C6F
:1028300089819A81FC0124830F900F900F900F9053
:10284000DF91CF910895CF93DF9300D000D0CDB723
:10285000DEB79E838D838D819E81FC01878190856B
:102860009C838B831A8219828D819E81FC018185D4
:10287000833011F080E02DC021C089819A81FC0154
:1028800080818631D9F489819A81FC0124858B81EC
:102890009C81FC018181281789F489819A8127E133
:1028A000FC0120838B819C81FC01228189819A819A
:1028B0008A579F4FFC01208381E00BC089819A8158
:1028C0000E942A099A83898389819A810097A9F6AF
:1028D00080E026960FB6F894DEBF0FBECDBFDF9125
:1028E000CF910895CF93DF9300D01F921F92CDB761
:1028F000DEB79D838C831A8219821B8227C089814F
:102900009A81FC018081863109F581E08B83898180
:102910009A818C579F4FFC01808191819C012150AD
:10292000310989819A818C579F4FFC013183208323
:1029300089819A818C579F4FFC01808191810097FA
:1029400029F489819A8160E10E94BF1489819A816A
:102950000E942A099A83898389819A81009779F64E
:102960008B81882321F08C819D810E94F0000F9043
:102970000F900F900F900F90DF91CF910895CF930C
:10298000DF9300D0CDB7DEB79A8389836B838981CB
:102990009A8127E1FC01208389819A818D579F4F7D
:1029A0002B81FC0120830F900F900F90DF91CF912E
:1029B0000895CF93DF9300D01F921F92CDB7DEB75B
:1029C0009D838C831A8219821B8227C089819A81F8
:1029D000FC018081813109F581E08B8389819A81B5
:1029E0008C579F4FFC01808191819C0121503109BE
:1029F00089819A818C579F4FFC0131832083898183
:102A00009A818C579F4FFC0180819181009729F416
:102A100089819A8123E1FC01208389819A810E9426
:102A20002A099A83898389819A81009779F68B8113
:102A3000882321F08C819D810E94F0000F900F90DF
:102A40000F900F900F90DF91CF910895CF93DF9368
:102A50001F92CDB7DEB789838981882F90E08130BE
:102A6000910539F08230910531F0009731F480E022
:102A700005C080E203C081E201C081E00F90DF91D8
:102A8000CF9108950F931F93CF93DF931F92CDB7EC
:102A9000DEB789830091B40B1091B50B89810E9438
:102AA0002615282FC8018D579F4FFC012083809148
:102AB000B40B9091B50B25E1FC0120831092B50B6E
:102AC0001092B40B8091AF0C9091B00C0197909341
:102AD000B00C8093AF0C0F90DF91CF911F910F91AD
:102AE0000895CF93DF931F921F92CDB7DEB71A825E
:102AF0001982BCC089819A81FC018081882F90E075
:102B00008431910509F4AFC0853191053CF48231DF
:102B1000910589F08331910539F1A8C0863191057D
:102B200009F4A3C0863191050CF444C087319105A6
:102B300009F47BC09BC089819A818C579F4FFC010F
:102B400080819181009751F089819A8121E1FC0176
:102B5000208383EC9BE00E94F00088C089819A81E9
:102B600023E1FC01208382C08091B40B9091B50BCE
:102B70000097F9F489819A819093B50B8093B40BF7
:102B800089819A8124E1FC01208389819A81FC0159
:102B9000218189819A810296622F0E94230480916B
:102BA000AF0C9091B00C01969093B00C8093AF0C49
:102BB0005DC05CC089819A818D579F4FFC018081E7
:102BC000882361F589819A81FC012585368580916C
:102BD000890C90918A0C28173907D1F489819A8140
:102BE000FC0183858170882399F089819A8126E18F
:102BF000FC01208389819A818C579F4F25E130E029
:102C0000FC013183208386EB9BE00E94F0000CC026
:102C100089819A8127E1FC01208306C089819A81FC
:102C200027E1FC01208322C021C089819A810E9472
:102C3000FF0B89819A8189579F4FFC018081918187
:102C4000009729F489819A810E9410090FC0898117
:102C50009A8189579F4FFC012081318189819A8116
:102C6000F901199503C0000001C0000089819A8113
:102C70000E942A099A83898389819A81009709F0A1
:102C800039CF0F900F90DF91CF910895CF93DF93BD
:102C9000CDB7DEB7000086EB90E0FC018081882F85
:102CA00090E08F7199270097B1F7DF91CF91089548
:102CB000CF93DF93CDB7DEB761970FB6F894DEBF41
:102CC0000FBECDBF6A877B878C879D878A859B8552
:102CD000AC85BD85880F991FAA1FBB1F880F991F40
:102CE000AA1FBB1F880F991FAA1FBB1F880F991F00
:102CF000AA1FBB1F880F991FAA1FBB1F28EE33E016
:102D000040E050E0BC01CD010E94531BDA01C90133
:102D10008C839D83AE83BF838C819D81AE81BF8177
:102D20000097A105B10509F498C08C819D81AE8101
:102D3000BF81892F9A2FAB2FBB279A8389838C81E0
:102D40008B8380E790E0FC01108286EB90E026EB1D
:102D500030E0F90120812062FC01208380EB90E0CB
:102D6000FC01108281EB90E0FC01108282EB90E08C
:102D7000FC0110820E94461687E390E027E0FC01E8
:102D8000208381EB90E027E0FC0120831092D00BA0
:102D900089819A81009731F083EB90E02FEFFC015D
:102DA000208328C08B81882331F083EB90E02B8136
:102DB000FC0120831FC00E94461680E790E0FC01C2
:102DC000108281EB90E0FC01108283E490E023E428
:102DD00030E0F90120812260FC0120830E94461628
:102DE00086EB90E026EB30E0F90120812F7DFC019D
:102DF000208333C080E790E020E730E0F9012081B4
:102E00002260FC0120830E94461683E590E027E0C3
:102E1000FC012083889583E590E0FC0110828FE51A
:102E200090E0FC0180818887F8948091D00B89879D
:102E30008FE590E02885FC0120838985882361F057
:102E400089819A81009731F089819A8101979A83CB
:102E5000898302C01B829ACF99CF61960FB6F894EE
:102E6000DEBF0FBECDBFDF91CF9108951F920F92AD
:102E700000905F000F9211248F93CF93DF93CDB713
:102E8000DEB781E08093D00BDF91CF918F910F90CF
:102E900000925F000F901F901895CF93DF93CDB7EE
:102EA000DEB72C970FB6F894DEBF0FBECDBF6D8393
:102EB0007E838F8398878D819E81AF81B885880FAF
:102EC000991FAA1FBB1F880F991FAA1FBB1F880F1E
:102ED000991FAA1FBB1F880F991FAA1FBB1F9C0108
:102EE000AD0180E094E2A4EFB0E0BC01CD010E940E
:102EF000531BDA01C9010197A109B10989839A839A
:102F0000AB83BC832DEC30E089819A81AB81BC819D
:102F1000892F9A2FAB2FBB27F90180838CEC90E08F
:102F20002981FC01208388EC90E022E0FC012083D1
:102F300089EC90E028E9FC0120838AEC90E026E00F
:102F4000FC0120838BED9BE09093DA0B8093D90BEF
:102F500080E590E09093D60B8093D50B1092D80B20
:102F60001092D70B1092D20B1092D10B1092D40B5F
:102F70001092D30B86E39CE09093350C8093340C35
:102F800080E590E09093310C8093300C1092330CDC
:102F90001092320C10922D0C10922C0C10922F0CBF
:102FA00010922E0C81E08093870C1092880C2C9646
:102FB0000FB6F894DEBF0FBECDBFDF91CF9108955D
:102FC000CF93DF931F92CDB7DEB789832091D70BC4
:102FD0003091D80B8091D50B9091D60B28173907DB
:102FE00009F42CC02091D90B3091DA0B8091D30BCE
:102FF0009091D40BAC014F5F5F4F5093D40B409333
:10300000D30B820F931F2981FC0120832091D30BC6
:103010003091D40B8091D50B9091D60B281739079E
:1030200021F41092D40B1092D30B8091D70B909176
:10303000D80B01969093D80B8093D70B0F90DF910C
:10304000CF910895CF93DF931F921F92CDB7DEB734
:103050008FE590E0FC0180818983F8942091340C05
:103060003091350C80912C0C90912D0CAC014F5F60
:103070005F4F50932D0C40932C0C820F931FFC013B
:1030800080818A8320912C0C30912D0C8091300C02
:103090009091310C2817390721F410922D0C1092C1
:1030A0002C0C8091320C9091330C01979093330C3F
:1030B0008093320C8FE590E02981FC0120838A8186
:1030C0000F900F90DF91CF9108951F920F92009073
:1030D0005F000F92112400905B000F922F933F939B
:1030E0008F939F93EF93FF93CF93DF93CDB7DEB78B
:1030F00081E08093870C89EC90E029EC30E0F901C5
:1031000020812F7DFC012083DF91CF91FF91EF91F2
:103110009F918F913F912F910F9000925B000F90A4
:1031200000925F000F901F9018951F920F920090D1
:103130005F000F92112400905B000F922F933F933A
:103140004F935F938F939F93EF93FF93CF93DF936F
:103150001F921F92CDB7DEB788EC90E0FC01808112
:1031600089838EEC90E0FC0180818A838981882F9D
:1031700090E08C7199270097D9F52091320C30910D
:10318000330C8091300C9091310C2817390709F4D9
:103190002FC02091340C3091350C80912E0C9091E1
:1031A0002F0CAC014F5F5F4F50932F0C40932E0CB0
:1031B000820F931F2A81FC01208320912E0C3091D5
:1031C0002F0C8091300C9091310C2817390721F485
:1031D00010922F0C10922E0C8091320C9091330C87
:1031E00001969093330C8093320C81E08093880C8D
:1031F0000F900F90DF91CF91FF91EF919F918F9161
:103200005F914F913F912F910F9000925B000F9033
:1032100000925F000F901F901895CF93DF9300D01E
:1032200000D0CDB7DEB78091D70B9091D80B009727
:1032300009F44CC08091870C882309F447C0209181
:10324000D90B3091DA0B8091D10B9091D20BAC015C
:103250004F5F5F4F5093D20B4093D10B820F931F60
:10326000FC01808189832091D10B3091D20B809118
:10327000D50B9091D60B2817390721F41092D20B59
:103280001092D10B8091D70B9091D80B019790930E
:10329000D80B8093D70B8FE590E0FC0180818A8367
:1032A000F8948EEC90E02981FC01208389EC90E079
:1032B00029EC30E0F90120812062FC01208310928A
:1032C000870C8FE590E02A81FC0120838FE590E058
:1032D000FC0180818B83F8948091880C8C83109200
:1032E000880C8091320C9091330C9E838D838FE5F6
:1032F00090E02B81FC0120838C81882321F08D813B
:103300009E810E945B1A26960FB6F894DEBF0FBE10
:10331000CDBFDF91CF910895CF93DF93CDB7DEB7C7
:103320008091D70B9091D80BDF91CF910895CF93D7
:10333000DF93CDB7DEB78091320C9091330CDF91E3
:10334000CF910895CF93DF93CDB7DEB784E590E0BA
:10335000FC01108288E10FB6F8948093600010920F
:1033600060000FBE81E690E020E8FC01208381E64A
:1033700090E0FC01108278940E94D019DF91CF91E7
:103380000895CF93DF931F92CDB7DEB789838981EC
:10339000882F90E00E94F7190F90DF91CF91089548
:1033A000CF93DF93CDB7DEB71092B10C88EA90E0EF
:1033B00020E137E2FC013183208381EA90E028E0BC
:1033C000FC01208381EA90E021EA30E0F9012081CC
:1033D0002260FC01208382E790E022E730E0F901DF
:1033E00020812260FC012083DF91CF910895CF934B
:1033F000DF931F921F92CDB7DEB79A8389838AEA43
:1034000090E024EA30E0F9014081518129813A813C
:10341000240F351FFC01318320838AEA90E0FC01F0
:103420002081318188EA90E0FC01808191818217BE
:10343000930798F48AEA90E02AEA30E0F9014081A3
:10344000518128EA30E0F90120813181BA01621B03
:10345000730B9B01FC013183208389E390E024E01E
:10346000FC012083000089E390E0FC018081882F2B
:1034700090E0847099270097B1F30F900F90DF913F
:10348000CF9108951F920F9200905F000F92112428
:103490008F93CF93DF93CDB7DEB78091B10C8F5F61
:1034A0008093B10CDF91CF918F910F9000925F00CC
:1034B0000F901F901895CF93DF931F921F92CDB757
:1034C000DEB79A8389830F900F90DF91CF91089593
:1034D000CF93DF93CDB7DEB7DF91CF910895CF9330
:1034E000DF9300D01F92CDB7DEB79C838B831A8207
:1034F0008A81882359F48BE290E02BE230E0F901D5
:10350000308120E42327FC0120831BC08A81813085
:1035100059F484E390E024E330E0F901308124E0C1
:103520002327FC0120830DC08A81823051F48EE272
:1035300090E02EE230E0F901308124E02327FC0105
:103540002083198211C08B819C81FC0127813085E9
:103550008981882F90E0820F931FFC0180810E9457
:10356000E01789818F5F89838B819C81FC01918524
:103570008981891740F381E00F900F900F900F9091
:10358000DF91CF910895CF93DF93CDB7DEB78CE96C
:1035900098E30E94AB0583E799E10E94C20586E1AA
:1035A0000E94740380E00E94E70381E00E946503AB
:1035B0006FE67AE181E00E94D905DF91CF9108950D
:1035C000CF93DF931F92CDB7DEB70E94C90060E0B2
:1035D00076E980E090E00E944D178AE290E02AE2CE
:1035E00030E0F90120812064FC0120838BE290E02F
:1035F0002BE230E0F90120812064FC01208383E389
:1036000090E023E330E0F90120812460FC01208375
:1036100084E390E024E330E0F90120812460FC01A0
:1036200020838DE290E02DE230E0F90120812460DA
:10363000FC0120838EE290E02EE230E0F90120814F
:103640002460FC01208319828981882351F48BE254
:1036500090E02BE230E0F90120812064FC0120831E
:1036600019C08981813051F484E390E024E330E093
:10367000F90120812460FC0120830CC08981823003
:1036800049F48EE290E02EE230E0F90120812460DE
:10369000FC0120830E94C31A0E94D8000E940D19C9
:1036A0000E94681AF9CFA1E21A2EAA1BBB1BFD01CA
:1036B0000DC0AA1FBB1FEE1FFF1FA217B307E40711
:1036C000F50720F0A21BB30BE40BF50B661F771F69
:1036D000881F991F1A9469F7609570958095909549
:1036E0009B01AC01BD01CF0108958F929F92AF92D3
:1036F000BF92CF92DF92EF92FF92CF93DF93EC01D4
:10370000688179818A819B816115710581059105A7
:1037100021F464E279ED8BE597E02DE133EF41E0B0
:1037200050E00E94E11B49015A019B01AC01A7EA4C
:10373000B1E40E94001C6B017C01ACEEB4EFA5016A
:1037400094010E940E1CC60ED71EE81EF91EF7FE3D
:1037500006C081E0C81AD108E10880E8F80AC882EA
:10376000D982EA82FB82C6019F77DF91CF91FF90D9
:10377000EF90DF90CF90BF90AF909F908F90089583
:103780000C94751B80E092E00C94751BA0E0B0E0F7
:103790008093000290930102A0930202B09303026F
:1037A0000895FB01DC0102C001900D924150504090
:1037B000D8F70895DC0101C06D9341505040E0F707
:1037C0000895052E97FB1EF400940E94F81B57FDE8
:1037D00007D00E94531B07FC03D04EF40C94F81B37
:1037E00050954095309521953F4F4F4F5F4F08952D
:1037F00090958095709561957F4F8F4F9F4F08955D
:103800000E94131CA59F900DB49F900DA49F800D46
:10381000911D11240895B7FF0C94001C0E94001CF8
:10382000821B930B0895A29FB001B39FC001A39F79
:10383000700D811D1124911DB29F700D811D1124E9
:08384000911D0895F894FFCFDB
:0E3848000100000003081A4080BEE6F7FC00F5
:00000001FF
